{
  "contractName": "TheFundersHub",
  "abi": [
    {
      "inputs": [
        {
          "internalType": "uint256",
          "name": "",
          "type": "uint256"
        }
      ],
      "name": "deployedStartUp",
      "outputs": [
        {
          "internalType": "address",
          "name": "",
          "type": "address"
        }
      ],
      "stateMutability": "view",
      "type": "function",
      "constant": true
    },
    {
      "inputs": [],
      "name": "createStartUp",
      "outputs": [],
      "stateMutability": "nonpayable",
      "type": "function"
    },
    {
      "inputs": [],
      "name": "getDeployedStartup",
      "outputs": [
        {
          "internalType": "address[]",
          "name": "",
          "type": "address[]"
        }
      ],
      "stateMutability": "view",
      "type": "function",
      "constant": true
    }
  ],
  "bytecode": "0x608060405234801561001057600080fd5b50611a19806100206000396000f3fe608060405234801561001057600080fd5b50600436106100415760003560e01c8063395c9f7114610046578063cb3d6fab14610076578063ccdce0c914610080575b600080fd5b610060600480360381019061005b9190610220565b61009e565b60405161006d91906102dd565b60405180910390f35b61007e6100dd565b005b610088610170565b60405161009591906102f8565b60405180910390f35b600081815481106100ae57600080fd5b906000526020600020016000915054906101000a900473ffffffffffffffffffffffffffffffffffffffff1681565b60006040516100eb906101fe565b604051809103906000f080158015610107573d6000803e3d6000fd5b5090506000819080600181540180825580915050600190039060005260206000200160009091909190916101000a81548173ffffffffffffffffffffffffffffffffffffffff021916908373ffffffffffffffffffffffffffffffffffffffff16021790555050565b606060008054806020026020016040519081016040528092919081815260200182805480156101f457602002820191906000526020600020905b8160009054906101000a900473ffffffffffffffffffffffffffffffffffffffff1673ffffffffffffffffffffffffffffffffffffffff16815260200190600101908083116101aa575b5050505050905090565b61163d806103a783390190565b60008135905061021a8161038f565b92915050565b60006020828403121561023257600080fd5b60006102408482850161020b565b91505092915050565b60006102558383610261565b60208301905092915050565b61026a81610353565b82525050565b61027981610353565b82525050565b600061028a8261032a565b6102948185610342565b935061029f8361031a565b8060005b838110156102d05781516102b78882610249565b97506102c283610335565b9250506001810190506102a3565b5085935050505092915050565b60006020820190506102f26000830184610270565b92915050565b60006020820190508181036000830152610312818461027f565b905092915050565b6000819050602082019050919050565b600081519050919050565b6000602082019050919050565b600082825260208201905092915050565b600061035e82610365565b9050919050565b600073ffffffffffffffffffffffffffffffffffffffff82169050919050565b6000819050919050565b61039881610385565b81146103a357600080fd5b5056fe608060405234801561001057600080fd5b5061161d806100206000396000f3fe608060405234801561001057600080fd5b50600436106101005760003560e01c806381d12c58116100975780639f6420c8116100665780639f6420c8146102ab578063b2a87fc3146102c9578063d704dd28146102e7578063d7d1bbdb1461030357610100565b806381d12c581461021f57806382fde093146102535780638a4b528d146102715780638a9cfd551461028f57610100565b80634051ddac116100d35780634051ddac1461019f578063481c6a75146101c55780634dcbf8c0146101e35780637399cf361461020157610100565b806303441006146101055780630a144391146101215780631fbed579146101515780633410452a14610181575b600080fd5b61011f600480360381019061011a9190611175565b61031f565b005b61013b60048036038101906101369190610ffc565b610599565b604051610148919061121f565b60405180910390f35b61016b60048036038101906101669190611175565b6105b9565b6040516101789190611204565b60405180910390f35b6101896105f8565b60405161019691906112b6565b60405180910390f35b6101a7610604565b6040516101bc999897969594939291906112d1565b60405180910390f35b6101cd61080d565b6040516101da9190611204565b60405180910390f35b6101eb610833565b6040516101f8919061123a565b60405180910390f35b6102096108c1565b604051610216919061123a565b60405180910390f35b61023960048036038101906102349190611175565b61094f565b60405161024a95949392919061125c565b60405180910390f35b61025b610a4a565b60405161026891906112b6565b60405180910390f35b610279610a50565b604051610286919061123a565b60405180910390f35b6102a960048036038101906102a4919061110e565b610ade565b005b6102b3610c2b565b6040516102c091906112b6565b60405180910390f35b6102d1610c31565b6040516102de91906112b6565b60405180910390f35b61030160048036038101906102fc9190611025565b610c37565b005b61031d60048036038101906103189190611175565b610ccc565b005b600260009054906101000a900473ffffffffffffffffffffffffffffffffffffffff1673ffffffffffffffffffffffffffffffffffffffff163373ffffffffffffffffffffffffffffffffffffffff161461037957600080fd5b600a54600082815481106103b6577f4e487b7100000000000000000000000000000000000000000000000000000000600052603260045260246000fd5b906000526020600020906005020160030154146103d257600080fd5b6000818154811061040c577f4e487b7100000000000000000000000000000000000000000000000000000000600052603260045260246000fd5b906000526020600020906005020160020160149054906101000a900460ff161561043557600080fd5b6000818154811061046f577f4e487b7100000000000000000000000000000000000000000000000000000000600052603260045260246000fd5b906000526020600020906005020160020160009054906101000a900473ffffffffffffffffffffffffffffffffffffffff1673ffffffffffffffffffffffffffffffffffffffff166108fc600083815481106104f4577f4e487b7100000000000000000000000000000000000000000000000000000000600052603260045260246000fd5b9060005260206000209060050201600101549081150290604051600060405180830381858888f19350505050158015610531573d6000803e3d6000fd5b5060016000828154811061056e577f4e487b7100000000000000000000000000000000000000000000000000000000600052603260045260246000fd5b906000526020600020906005020160020160146101000a81548160ff02191690831515021790555050565b60096020528060005260406000206000915054906101000a900460ff1681565b600881815481106105c957600080fd5b906000526020600020016000915054906101000a900473ffffffffffffffffffffffffffffffffffffffff1681565b60008080549050905090565b60008060008060006060806060600060035447600080549050600a54600260009054906101000a900473ffffffffffffffffffffffffffffffffffffffff166004600560066007548380546106589061146f565b80601f01602080910402602001604051908101604052809291908181526020018280546106849061146f565b80156106d15780601f106106a6576101008083540402835291602001916106d1565b820191906000526020600020905b8154815290600101906020018083116106b457829003601f168201915b505050505093508280546106e49061146f565b80601f01602080910402602001604051908101604052809291908181526020018280546107109061146f565b801561075d5780601f106107325761010080835404028352916020019161075d565b820191906000526020600020905b81548152906001019060200180831161074057829003601f168201915b505050505092508180546107709061146f565b80601f016020809104026020016040519081016040528092919081815260200182805461079c9061146f565b80156107e95780601f106107be576101008083540402835291602001916107e9565b820191906000526020600020905b8154815290600101906020018083116107cc57829003601f168201915b50505050509150985098509850985098509850985098509850909192939495969798565b600260009054906101000a900473ffffffffffffffffffffffffffffffffffffffff1681565b600680546108409061146f565b80601f016020809104026020016040519081016040528092919081815260200182805461086c9061146f565b80156108b95780601f1061088e576101008083540402835291602001916108b9565b820191906000526020600020905b81548152906001019060200180831161089c57829003601f168201915b505050505081565b600480546108ce9061146f565b80601f01602080910402602001604051908101604052809291908181526020018280546108fa9061146f565b80156109475780601f1061091c57610100808354040283529160200191610947565b820191906000526020600020905b81548152906001019060200180831161092a57829003601f168201915b505050505081565b6000818154811061095f57600080fd5b90600052602060002090600502016000915090508060000180546109829061146f565b80601f01602080910402602001604051908101604052809291908181526020018280546109ae9061146f565b80156109fb5780601f106109d0576101008083540402835291602001916109fb565b820191906000526020600020905b8154815290600101906020018083116109de57829003601f168201915b5050505050908060010154908060020160009054906101000a900473ffffffffffffffffffffffffffffffffffffffff16908060020160149054906101000a900460ff16908060030154905085565b600a5481565b60058054610a5d9061146f565b80601f0160208091040260200160405190810160405280929190818152602001828054610a899061146f565b8015610ad65780601f10610aab57610100808354040283529160200191610ad6565b820191906000526020600020905b815481529060010190602001808311610ab957829003601f168201915b505050505081565b600260009054906101000a900473ffffffffffffffffffffffffffffffffffffffff1673ffffffffffffffffffffffffffffffffffffffff163373ffffffffffffffffffffffffffffffffffffffff1614610b3857600080fd5b60008060016000815480929190610b4e906114d2565b9190505581548110610b89577f4e487b7100000000000000000000000000000000000000000000000000000000600052603260045260246000fd5b9060005260206000209060050201905083816000019080519060200190610bb1929190610ec7565b50828160010181905550818160020160006101000a81548173ffffffffffffffffffffffffffffffffffffffff021916908373ffffffffffffffffffffffffffffffffffffffff16021790555060008160020160146101000a81548160ff0219169083151502179055506000816003018190555050505050565b60035481565b60075481565b85600260006101000a81548173ffffffffffffffffffffffffffffffffffffffff021916908373ffffffffffffffffffffffffffffffffffffffff1602179055508460049080519060200190610c8e929190610ec7565b508260059080519060200190610ca5929190610ec7565b508160069080519060200190610cbc929190610ec7565b5080600781905550505050505050565b600960003373ffffffffffffffffffffffffffffffffffffffff1673ffffffffffffffffffffffffffffffffffffffff16815260200190815260200160002060009054906101000a900460ff16610d2257600080fd5b60008181548110610d5c577f4e487b7100000000000000000000000000000000000000000000000000000000600052603260045260246000fd5b906000526020600020906005020160040160003373ffffffffffffffffffffffffffffffffffffffff1673ffffffffffffffffffffffffffffffffffffffff16815260200190815260200160002060009054906101000a900460ff1615610dc257600080fd5b600160008281548110610dfe577f4e487b7100000000000000000000000000000000000000000000000000000000600052603260045260246000fd5b906000526020600020906005020160040160003373ffffffffffffffffffffffffffffffffffffffff1673ffffffffffffffffffffffffffffffffffffffff16815260200190815260200160002060006101000a81548160ff02191690831515021790555060008181548110610e9d577f4e487b7100000000000000000000000000000000000000000000000000000000600052603260045260246000fd5b90600052602060002090600502016003016000815480929190610ebf906114d2565b919050555050565b828054610ed39061146f565b90600052602060002090601f016020900481019282610ef55760008555610f3c565b82601f10610f0e57805160ff1916838001178555610f3c565b82800160010185558215610f3c579182015b82811115610f3b578251825591602001919060010190610f20565b5b509050610f499190610f4d565b5090565b5b80821115610f66576000816000905550600101610f4e565b5090565b6000610f7d610f7884611398565b611373565b905082815260208101848484011115610f9557600080fd5b610fa084828561142d565b509392505050565b600081359050610fb7816115b9565b92915050565b600082601f830112610fce57600080fd5b8135610fde848260208601610f6a565b91505092915050565b600081359050610ff6816115d0565b92915050565b60006020828403121561100e57600080fd5b600061101c84828501610fa8565b91505092915050565b60008060008060008060c0878903121561103e57600080fd5b600061104c89828a01610fa8565b965050602087013567ffffffffffffffff81111561106957600080fd5b61107589828a01610fbd565b955050604087013567ffffffffffffffff81111561109257600080fd5b61109e89828a01610fbd565b945050606087013567ffffffffffffffff8111156110bb57600080fd5b6110c789828a01610fbd565b935050608087013567ffffffffffffffff8111156110e457600080fd5b6110f089828a01610fbd565b92505060a061110189828a01610fe7565b9150509295509295509295565b60008060006060848603121561112357600080fd5b600084013567ffffffffffffffff81111561113d57600080fd5b61114986828701610fbd565b935050602061115a86828701610fe7565b925050604061116b86828701610fa8565b9150509250925092565b60006020828403121561118757600080fd5b600061119584828501610fe7565b91505092915050565b6111a7816113e5565b82525050565b6111b6816113f7565b82525050565b60006111c7826113c9565b6111d181856113d4565b93506111e181856020860161143c565b6111ea816115a8565b840191505092915050565b6111fe81611423565b82525050565b6000602082019050611219600083018461119e565b92915050565b600060208201905061123460008301846111ad565b92915050565b6000602082019050818103600083015261125481846111bc565b905092915050565b600060a082019050818103600083015261127681886111bc565b905061128560208301876111f5565b611292604083018661119e565b61129f60608301856111ad565b6112ac60808301846111f5565b9695505050505050565b60006020820190506112cb60008301846111f5565b92915050565b6000610120820190506112e7600083018c6111f5565b6112f4602083018b6111f5565b611301604083018a6111f5565b61130e60608301896111f5565b61131b608083018861119e565b81810360a083015261132d81876111bc565b905081810360c083015261134181866111bc565b905081810360e083015261135581856111bc565b90506113656101008301846111f5565b9a9950505050505050505050565b600061137d61138e565b905061138982826114a1565b919050565b6000604051905090565b600067ffffffffffffffff8211156113b3576113b2611579565b5b6113bc826115a8565b9050602081019050919050565b600081519050919050565b600082825260208201905092915050565b60006113f082611403565b9050919050565b60008115159050919050565b600073ffffffffffffffffffffffffffffffffffffffff82169050919050565b6000819050919050565b82818337600083830152505050565b60005b8381101561145a57808201518184015260208101905061143f565b83811115611469576000848401525b50505050565b6000600282049050600182168061148757607f821691505b6020821081141561149b5761149a61154a565b5b50919050565b6114aa826115a8565b810181811067ffffffffffffffff821117156114c9576114c8611579565b5b80604052505050565b60006114dd82611423565b91507fffffffffffffffffffffffffffffffffffffffffffffffffffffffffffffffff8214156115105761150f61151b565b5b600182019050919050565b7f4e487b7100000000000000000000000000000000000000000000000000000000600052601160045260246000fd5b7f4e487b7100000000000000000000000000000000000000000000000000000000600052602260045260246000fd5b7f4e487b7100000000000000000000000000000000000000000000000000000000600052604160045260246000fd5b6000601f19601f8301169050919050565b6115c2816113e5565b81146115cd57600080fd5b50565b6115d981611423565b81146115e457600080fd5b5056fea2646970667358221220c9bebc3e556d5e8386f09da559570d4a9260c9eabc505082c67bb49c21f1f27664736f6c63430008010033a2646970667358221220ff721a5675f2b4411b3f9e241fe2a0668442986656993be784dfc29ac864491e64736f6c63430008010033",
  "immutableReferences": {},
  "source": "// SPDX-License-Identifier: MIT\npragma solidity >=0.4.22 <0.9.0;\n\n\ncontract TheFundersHub {\n    address[] public deployedStartUp;\n\n    function createStartUp() public {\n        address newStartup = address(new StartUp1());\n        deployedStartUp.push(newStartup);\n    }\n\n    function getDeployedStartup() public view returns (address[] memory) {\n        return deployedStartUp;\n    }\n}\n\n\ncontract StartUp1 {\n  struct Request {\n      string description;\n      uint value;\n      address recipient;\n      bool complete;\n      uint approvalCount;\n      mapping(address => bool) approvals;\n  }\n\n  Request[] public requests;\n  uint numRequest;\n  address public manager;\n  uint public emailContribution;\n  string public StartUpName;\n  string public StartUpDescription;\n  string public fileUrl;\n  uint public targetToAchieve;\n  address[] public contributers;\n  mapping(address => bool) public approvers;\n  uint public approversCount;\n\n\n  modifier restricted() {\n      require(msg.sender == manager);\n      _;\n  }\n\n  function StartUp( address creator,string memory name,string memory email,string memory description,string memory image,uint target) public {\n      manager = creator;\n      email = email;\n      StartUpName=name;\n      StartUpDescription=description;\n      fileUrl=image;\n      targetToAchieve=target;\n  }\n\n\n  function createRequest(string memory description, uint value, address recipient) public restricted {\n      Request storage newRequest = requests[numRequest++];\n         newRequest.description = description;\n         newRequest.value= value;\n         newRequest.recipient = recipient;\n         newRequest.complete =false;\n         newRequest.approvalCount= 0;\n  }\n\n  function approveRequest(uint index) public {\n      require(approvers[msg.sender]);\n      require(!requests[index].approvals[msg.sender]);\n\n      requests[index].approvals[msg.sender] = true;\n      requests[index].approvalCount++;\n  }\n\n  function finalizeRequest(uint index) public restricted{\n      require(requests[index].approvalCount == (approversCount));\n      require(!requests[index].complete);\n\n      payable(requests[index].recipient).transfer(requests[index].value);\n      requests[index].complete = true;\n\n  }\n\n\n    function getSummary() public view returns (uint,uint,uint,uint,address,string memory,string memory,string memory,uint) {\n        return(\n            emailContribution,\n            address(this).balance,\n            requests.length,\n            approversCount,\n            manager,\n            StartUpName,\n            StartUpDescription,\n            fileUrl,\n            targetToAchieve\n          );\n    }\n\n    function getRequestsCount() public view returns (uint){\n        return requests.length;\n    }\n}",
  "sourcePath": "/Users/hanu/Dev/Final Project/The Funder'Hub/contracts/FunderHub.sol",
  "compiler": {
    "name": "solc",
    "version": "0.8.1+commit.df193b15.Emscripten.clang"
  },
  "schemaVersion": "3.4.6",
  "updatedAt": "2022-05-13T02:02:39.581Z",
  "networkType": "ethereum",
  "devdoc": {
    "kind": "dev",
    "methods": {},
    "version": 1
  },
  "userdoc": {
    "kind": "user",
    "methods": {},
    "version": 1
  }
}